:100000000C9472000C9493000C9493000C94930045
:100010000C9493000C9493000C9493000C94930014
:100020000C9493000C9493000C9493000C94930004
:100030000C9493000C9493000C9493000C949300F4
:100040000C9493000C9493000C9493000C949300E4
:100050000C9493000C9493000C9493000C949300D4
:100060000C9493000C9493000C9493000C949300C4
:100070000C9493000C9493000C9493000C949300B4
:100080000C9493000C9493000C9493000C949300A4
:100090000C9493000C9493000C9493000C94930094
:1000A0000C9493000C9493000C9493000C94930084
:1000B0000C9493000C9493000C9493000C94930074
:1000C0000C9493000C9493000C9493000C94D60120
:1000D0000C9493000C9493000C9493000C94930054
:1000E0000C94930011241FBECFEFD1E2DEBFCDBF31
:1000F00000E00CBF12E0A0E0B2E0EAEAFAE000E0C3
:100100000BBF02C007900D92A230B107D9F722E0D1
:10011000A2E0B2E001C01D92AA31B207E1F70E944D
:10012000DD020C9453050C940000CF93DF93CDB700
:10013000DEB781E290E021E230E0F90120812F601A
:10014000FC01208382E290E022E230E0F90120818C
:10015000207FFC0120838AE091E02AE031E0F90170
:1001600020812861FC0120838BE091E02BE031E0CD
:10017000F90120812861FC0120830000DF91CF91EB
:100180000895CF93DF93CDB7DEB780E390E0FC0115
:10019000108281E390E0FC01108287E091E0FC0195
:1001A000108288E091E0FC0110820000DF91CF9185
:1001B0000895CF93DF93CDB7DEB78DE290E02DE2C7
:1001C00030E0F90120812F77FC0120838EE290E05E
:1001D0002EE230E0F90120812068FC01208300003C
:1001E000DF91CF910895CF93DF93CDB7DEB70E9413
:1001F00095000000DF91CF910895CF93DF93CDB7A5
:10020000DEB78AE790E0FC0110828BE790E0FC010A
:1002100010828CE790E020E2FC01208380E590E0F2
:1002200020E8FC0120838AE790E026E8FC01208397
:100230000000DF91CF910895CF93DF931F921F921B
:10024000CDB7DEB78A838A81883028F08BE790E0CB
:1002500028E0FC0120838A8187708A838CE790E004
:100260002A812062FC0120838AE790E02AE730E0BF
:10027000F90120812064FC01208300008AE790E0DE
:10028000FC018081882F90E080719927892BB1F340
:1002900089E790E0FC01808189838AE790E02AE782
:1002A00030E0F90120812061FC0120838BE790E0A0
:1002B000FC01108289810F900F90DF91CF910895FA
:1002C000CF93DF93CDB7DEB781E291E0FC011082DE
:1002D00085E291E02FEFFC01208384E291E021E0B0
:1002E000FC01208389E291E0FC01108288E291E028
:1002F0002FEFFC0120838BE291E0FC0110828AE267
:1003000091E02FEFFC0120838DE291E0FC0110824F
:100310008CE291E02FEFFC01208380E291E029EA5A
:10032000FC01208381E291E02BE0FC0120830000AE
:10033000DF91CF910895CF93DF931F921F92CDB796
:10034000DEB789836A8388E291E02981FC012083FA
:100350008AE291E02A81FC01208300000F900F9037
:10036000DF91CF910895CF93DF93CDB7DEB781EDC5
:1003700090E0FC01108280ED90E0FC01108282EDA3
:1003800090E026E0FC01208384ED90E02FE5FC0165
:10039000208385ED90E0FC01108281ED90E028E95A
:1003A000FC0120830000DF91CF9108951F920F92EE
:1003B00000905F000F92112400905B000F922F932A
:1003C0003F934F935F936F937F938F939F93AF93DD
:1003D000BF93EF93FF93CF93DF93CDB7DEB786ED57
:1003E00090E0FC0180818093110280910402909141
:1003F0000502209111028D5E9D4FFC0120838091AA
:1004000004029091050201969093050280930402E4
:1004100080911302813421F010920502109204029F
:100420002091040230910502809100029091010216
:10043000281739070CF450C080911302813409F059
:100440004BC0109205021092040290911602809106
:100450001502692F0E949B0180911402883359F480
:1004600082E290E026E0FC01208381E08093030299
:1004700081E08093020280911402823349F482E287
:1004800090E029E0FC012083109203021092020206
:1004900080911402843351F482E290E025E0FC0163
:1004A00020831092030281E0809302028091140263
:1004B000863351F482E290E02AE0FC01208381E05F
:1004C000809303021092020280911402853321F47A
:1004D00082E290E0FC0110820000DF91CF91FF9159
:1004E000EF91BF91AF919F918F917F916F915F91AC
:1004F0004F913F912F910F9000925B000F900092CF
:100500005F000F901F901895CF93DF93CDB7DEB7A4
:1005100081EA90E0FC01108285EA90E027EFFC017F
:10052000208384EA90E0FC01108289EA90E0FC01DB
:10053000108288EA90E0FC0110828BEA90E0FC01D6
:1005400010828AEA90E0FC0110828DEA90E0FC01C2
:1005500010828CEA90E0FC01108287EA90E0FC01B6
:10056000108286EA90E0FC01108280EA90E0FC01B3
:10057000108282EA90E0FC01108281EA90E024E09F
:10058000FC0120830000DF91CF910895CF93DF938A
:10059000CDB7DEB7F8940E94F3000E94B3010E9429
:1005A000FD000E94600182E790E021E0FC012083D1
:1005B00078940000DF91CF910895CF93DF93CDB76A
:1005C000DEB70E94C60280E00E941C01282F30E0A6
:1005D00044E6429FC001439F900D1124092E000C58
:1005E000AA0BBB0BBC01CD010E943604DC01CB0180
:1005F0002DE335ED41EA5DE3BC01CD010E94E60447
:10060000DC01CB0123E333E343E35FE3BC01CD0132
:100610000E94C303DC01CB0180930D0290930E0274
:10062000A0930F02B093100280910D0290910E02E0
:10063000A0910F02B091100220E030E842E254E4B1
:10064000BC01CD010E942F04882334F485E091E0A1
:1006500020E8FC012083B7CF80910D0290910E021B
:10066000A0910F02B091100220E030E04FE254E47C
:10067000BC01CD010E942F04882334F485E091E071
:1006800020ECFC0120839FCF80910D0290910E02FF
:10069000A0910F02B091100220E030E84BE354E447
:1006A000BC01CD010E942F04882334F485E091E041
:1006B00020EEFC01208387CF80910D0290910E02E5
:1006C000A0910F02B091100220E030E048E454E421
:1006D000BC01CD010E942F04882334F485E091E011
:1006E00020EFFC0120836FCF80910D0290910E02CC
:1006F000A0910F02B091100220E030E844E554E4EC
:10070000BC01CD010E942F04882334F485E091E0E0
:1007100028EFFC01208357CF80910D0290910E02AB
:10072000A0910F02B091100220E030E041E654E4C5
:10073000BC01CD010E942F04882334F485E091E0B0
:100740002CEFFC0120833FCF80910D0290910E028F
:10075000A0910F02B091100220E030E84DE654E481
:10076000BC01CD010E942F04882334F485E091E080
:100770002EEFFC01208327CF85E091E02FEFFC01D5
:10078000208321CF5058BB27AA270E94DA030C945C
:10079000AC040E949E0438F00E94A50420F039F4B5
:1007A0009F3F19F426F40C949B040EF4E095E7FBAC
:1007B0000C949504E92F0E94BD0458F3BA17620700
:1007C00073078407950720F079F4A6F50C94DF04ED
:1007D0000EF4E0950B2EBA2FA02D0B01B90190015C
:1007E0000C01CA01A0011124FF27591B99F0593FA0
:1007F00050F4503E68F11A16F040A22F232F342FE8
:100800004427585FF3CF469537952795A795F04035
:100810005395C9F77EF41F16BA0B620B730B840B4A
:10082000BAF09150A1F0FF0FBB1F661F771F881F02
:10083000C2F70EC0BA0F621F731F841F48F487955A
:1008400077956795B795F7959E3F08F0B0CF93954C
:10085000880F08F09927EE0F9795879508950E94C5
:10086000710408F481E00895E89409C097FB3EF410
:1008700090958095709561957F4F8F4F9F4F9923ED
:10088000A9F0F92F96E9BB279395F695879577956B
:100890006795B795F111F8CFFAF4BB0F11F460FF2B
:1008A0001BC06F5F7F4F8F4F9F4F16C0882311F083
:1008B00096E911C0772321F09EE8872F762F05C097
:1008C000662371F096E8862F70E060E02AF09A9532
:1008D000660F771F881FDAF7880F9695879597F927
:1008E0000895990F0008550FAA0BE0E8FEEF1616C1
:1008F0001706E807F907C0F012161306E407F50714
:1009000098F0621B730B840B950B39F40A2661F087
:10091000232B242B252B21F408950A2609F4A1402A
:10092000A6958FEF811D811D089597F99F6780E837
:1009300070E060E008959FEF80EC089500240A9431
:100940001616170618060906089500240A941216AA
:100950001306140605060895092E0394000C11F4DD
:10096000882352F0BB0F40F4BF2B11F460FF04C08A
:100970006F5F7F4F8F4F9F4F089557FD9058440FE3
:10098000551F59F05F3F71F04795880F97FB991FEE
:1009900061F09F3F79F087950895121613061406AB
:1009A000551FF2CF4695F1DF08C016161706180638
:1009B000991FF1CF86957105610508940895E89413
:1009C000BB2766277727CB0197F908950E94F90482
:1009D0000C94AC040E949E0438F00E94A50420F000
:1009E000952311F00C9495040C949B0411240C9401
:1009F000E0040E94BD0470F3959FC1F3950F50E091
:100A0000551F629FF001729FBB27F00DB11D639FC0
:100A1000AA27F00DB11DAA1F649F6627B00DA11D66
:100A2000661F829F2227B00DA11D621F739FB00D0C
:100A3000A11D621F839FA00D611D221F749F33277C
:100A4000A00D611D231F849F600D211D822F762F15
:100A50006A2F11249F5750409AF0F1F088234AF0F2
:100A6000EE0FFF1FBB1F661F771F881F915050405E
:100A7000A9F79E3F510580F00C9495040C94E00476
:100A80005F3FE4F3983ED4F3869577956795B795E5
:100A9000F795E7959F5FC1F7FE2B880F911D9695FF
:0A0AA000879597F90895F894FFCFA9
:020AAA00040046
:00000001FF
